:020000040000FA
:020000000528D1
:06000A00850183160313BB
:1000100006309F003F308500860188018312A401CD
:10002000A7016E30A3002308A5002508A4004A20DC
:1000300005181B282E2885181E2831280519212867
:100040002728851924284428051A15284728271CFD
:1000500034201528271C1528342815286220A50EC1
:1000600015280030A5001528860162206220622034
:1000700062202508A4004A206220622062206220BB
:1000800005193428271427286220A50A152862207C
:10009000A50315288801081424080F397420A2002C
:1000A000220986006F200810880188142408F0397E
:1000B000A600A60E26087420A200220986006F2042
:1000C00088010800FF30A100FF30B4000830B500FF
:1000D000B50B6828B40B6628A10B64280800FF3014
:1000E000B400B40B712808008207C034F934A4347A
:1000F000B034993492348234F83480349034883473
:0C0100008334C634A13486348E340800E9
:00000001FF
