:1000000000308A001B290000FF00030E8301A100BD
:100010000A08A0008A010408A2007708A300780853
:10002000A4007908A5007A08A6007B08A70083131E
:1000300083128B1E1D280B1934288B1D21280B18A9
:100040003728220884002308F7002408F800250830
:10005000F9002608FA002708FB0020088A00210E74
:100060008300FF0E7F0E09008A110A120A298A11E5
:100070000A12AC280A108A100A11820749346E3419
:100080007434653472347234753470346334693462
:100090006F346E3420345034423437340A340D34E3
:1000A00000340A108A100A11820749346E347434FD
:1000B00065347234723475347034633469346F3437
:1000C0006E3420345034423436340A340D34003423
:1000D0000A108A100A11820749346E347434653468
:1000E0007234723475347034633469346F346E34FE
:1000F00020345034423435340A340D3400340A107C
:100100008A100A11820749346E34743465347234AB
:10011000723475347034633469346F346E3420341F
:100120005034423434340A340D3400340A108A1006
:100130000A118207503475346C3473346F342034B0
:10014000643465342034623461346A346134643434
:1001500061340A340D340034FF3083168600831274
:100160000608A9002908803C031DC328AC012C08FF
:100170003A20AC0AF70077080C1EBC289900123010
:100180002C02031DB7282908403C031DD428AC01CC
:100190002C085120AC0AF70077080C1ECD289900D6
:1001A00012302C02031DC8282908203C031DE52815
:1001B000AC012C086820AC0AF70077080C1EDE287A
:1001C000990012302C02031DD9282908103C031D68
:1001D000F628AC012C087F20AC0AF70077080C1E2B
:1001E000EF28990012302C02031DEA28A908031DEC
:1001F0000629AC012C089620AC0AF70077080C1EE3
:10020000FF28990011302C02031DFA280B108A11C7
:100210000A122128AA0A0319AB0A2A08023C031D64
:1002200017292B08033C031D1729AB01AA010B1149
:100230008A110A12212884011F3083050630831693
:100240009F008130990026309800903083129800EA
:10025000AA01AB018B1581010730F700F71D382982
:1002600007308101813084000008C0390F388000D8
:100270006400813084000008C039770480008B1648
:08028000C0308B044229630029
:023E000000348C
:02400E00FE3F73
:00000001FF
;PIC16F877
