:1000000000308A00862B0000FF00030E8301A10050
:100010000A08A0008A010408A2007708A300780853
:10002000A4007908A5007A08A6007B08A70083131E
:1000300083128B1E1D280B193028220884002308E8
:10004000F7002408F8002508F9002608FA00270818
:10005000FB0020088A00210E8300FF0E7F0E09009E
:100060008A110A12FA2A0A108A100A118207203409
:1000700076346F346C34743461346A3465342034CB
:100080003D3425346C34753420345B346434653449
:1000900063345D342C34203425344C3458342034CB
:1000A0005B346834653478345D342C342034253442
:1000B000323466345B3476345D340A340D342034A3
:1000C00000348E30F7002D08F8002C08F900FA01F2
:1000D000F808031D75287908F800F9010830F702BF
:1000E000F808031D7528F7017D280310F81B7C28EC
:1000F000F90DF80DF7037528F81300008A110A129C
:10010000102B2C080319F228B40030080319F22828
:10011000B407031C8C2893287F30B402031CF228F8
:100120000319F22897288130B4070318F2283408FD
:10013000F700F801F901FA012D08B800B8172E08E8
:10014000B7002F08B6001830B400B501361CC0281F
:100150003308FA07031CB228F90A031DB228F80A6B
:100160000319B5173208F907031CB928F80A03194F
:10017000B5173108AE00AE172E08F8070318B517EB
:10018000B50DF80CF90CFA0CB80CB70CB60C031042
:10019000B40BA5280130F7070318F228F81BD7285D
:1001A000B80DFA0DF90DF80DF7030319F228B81F71
:1001B000E828FA0A031DE828F90A031DE828F80AC6
:1001C000031DE828F80CF90CFA0CF70A0319F228B9
:1001D0002D08B5003108B506B51FF028F817F62828
:1001E000F813F628F701F801F901FA0100008A1165
:1001F0000A12212B0408B800320EF038B400B407FC
:10020000E23EB500323EB70032080F39B507B507F8
:10021000B707E93EB600B607B607310E0F39B60785
:10022000B707B60DB70DB709B70D31080F39B707C6
:10023000B40D0730B3000A30B707B603031C1C29FE
:10024000B607B503031C2029B507B403031C2429F2
:10025000B407B303031C2829333084000730380562
:10026000840737300402031949290008F700031DE9
:100270003F29381A4729B819412920304229083026
:10028000B8003030F70777080C1E44299900840A1B
:1002900031290008F7003030F70777080C1E4E2987
:1002A00099008A110A123D2BB31B67290F30F70002
:1002B000320EF7050A307702031861293030F7074C
:1002C00063293308F70777080C1E642999000F305B
:1002D000B2050A30320203186F2930307129B31386
:1002E0003308B20732080C1E73299900003437080E
:1002F000C0003808C100C201B41F80294017C103E3
:10030000B41733080319232A7F303302031CDF2973
:10031000B300C3010430C4000310B60DB50DB40D15
:10032000C20DC40B8C290430330203189F290330FB
:100330003302031D192A0A304202031C192A033012
:10034000B302C30AED220310B60DB50DB40DC20DF4
:10035000D6220230C4000310C20CB40CB50CB60C8B
:10036000C40BAB29ED220430C4000310B70CB80C49
:10037000B90CBA0CC40BB529D622ED223908BA0043
:100380003808B9003708B800B701D622ED2238087E
:10039000BA003708B900B701B801D622C2199329AB
:1003A000B308031DD829B60AB50AB40AC20A192A25
:1003B0000310B60DB50DB40DC20DB3039329B309E7
:1003C000B30A7F30B307C3010430C4000310B60D75
:1003D000B50DB40DC20DC40BE6290430B3070530CA
:1003E0003302031C252AED220310B60DB50DB40D02
:1003F000C20D0310B60DB50DB40DC20DD6220310FB
:10040000B60DB50DB40DC20DC30A0330C400031000
:10041000C20CB40CB50CB60CC40B072A0330B302E3
:10042000421EEF290310C20CB40CB50CB60CB3037A
:10043000EF29B309B30A0330B307430AC102031C0F
:10044000C1010130262A0230262A0030BC00C01B20
:10045000342AC11B342AC1080319342A20300C1E47
:100460002F2A9900C10B2E2A401F3A2A2D300C1E2C
:10047000372A9900C01F472AC11B472AC108031900
:10048000472A30300C1E422A9900C10B3E2AC01365
:1004900040133C1C522A4308BC004308BE00400ADB
:1004A000BE077C2ABC1C562A400AC300C008031998
:1004B000D42A2E300C1E5A2A99004308BF00BF03CD
:1004C00040083F02031C662A4008BF00BF0803190A
:1004D0006F2A30300C1E6A2A9900BF0B692A430824
:1004E000C400400AC4020318F62AB303400ABE003F
:1004F0004308BE023E08BC004208BB003308031993
:10050000862ABD000310BB0CBD0B822A3E080319CE
:10051000D42A30303B070C1E8B2A99003C08031D5F
:10052000982AC0080319D42A2E300C1E952A990047
:10053000BC03BE030319D42A33080319A42ABD003F
:100540000310BB0DBD0BA02A3B08C2024208B70036
:100550003408B8003508B9003608BA000310B60DE3
:10056000B50DB40DC20D0310B60DB50DB40DC20D11
:100570003A08B607031CC12AB50FC12AB40FC12A15
:10058000C20A3908B507031CC82AB40FC82AC20A10
:100590003808B4070318C20A3708C2070310B60D9B
:1005A000B50DB40DC20D7C2A0000F62A3A08B60734
:1005B000031CDF2AB50FDF2AB40FDF2AC20A39086D
:1005C000B507031CE62AB40FE62AC20A3808B407A6
:1005D0000318C20A3708C20700344208B7003408BB
:1005E000B8003508B9003608BA00003400008A1196
:1005F0000A12722BAA0A0319AB0A2A08023C031D2D
:10060000822B2B08033C031D822B003083168600AF
:100610008312280886002908AD002808AC0061284C
:100620007A08AF007908AE007808AD007708AC0012
:100630002E30B3009030B2002030B1007930B000DD
:1006400081287708AC007808AD007908AE007A08F8
:10065000AF00B00130083320B00AF70077080C1E55
:100660002F2B99000A303002031D2A2B10308400F2
:100670002908B2002808B100FA280D30B10031086D
:100680003320B10AF70077080C1E442B990015306F
:100690003102031D3F2B2908B2003730B30054212B
:1006A0002808B2003730B30054211830B2003208A5
:1006B0003320B20AF70077080C1E5C2B990020301B
:1006C0003202031D572B2F08B6002E08B5002D0847
:1006D000B4002C08B300BA01B9010130B8000630EB
:1006E000B70077292330B30033083320B30AF7006B
:1006F00077080C1E792B990029303302031D742BC7
:10070000AB01AA010B118A110A121D2884011F30A6
:100710008305063083169F008130990026309800AB
:10072000903083129800AA01AB01803083169F009D
:1007300083121F083839C1389F000030F8001F08A5
:10074000C73978049F0081010730F700F71DB02BEF
:1007500007308101813084000008C0390F388000E3
:100760006400813084000008C039770480008B1653
:10077000C0308B042130F700F70BBC2B1F151F195D
:10078000BF2B83161E088312A8001E08A900213063
:0A079000F700F70BC92BBA2B63002A
:023E000000348C
:02400E00FE3F73
:00000001FF
;PIC16F877
