:1000000000308A00CB2A00000A108A100A118207E9
:10001000203476346F346C34743461346A3465342B
:1000200020343D3425346C34753420345B346434EE
:10003000653463345D342C34203425344C345834E6
:1000400020345B346834653478345D342C342034A7
:100050002534323466345B3476345D340A340D34FE
:10006000203400348E30F7002308F8002208F9000D
:10007000FA01F808031D46287908F800F90108304C
:10008000F702F808031D4628F7014E280310F81B55
:100090004D28F90DF80DF7034628F81300008A11D2
:1000A0000A12022B22080319C328AA0026080319E2
:1000B000C328AA07031C5D2864287F30AA02031CFA
:1000C000C3280319C32868288130AA070318C32846
:1000D0002A08F700F801F901FA012308AE00AE176B
:1000E0002408AD002508AC001830AA00AB012C1C78
:1000F00091282908FA07031C8328F90A031D83287D
:10010000F80A0319AB172808F907031C8A28F80A0C
:100110000319AB172708A400A4172408F80703182D
:10012000AB17AB0DF80CF90CFA0CAE0CAD0CAC0C1B
:100130000310AA0B76280130F7070318C328F81B11
:10014000A828AE0DFA0DF90DF80DF7030319C32811
:10015000AE1FB928FA0A031DB928F90A031DB928E8
:10016000F80A031DB928F80CF90CFA0CF70A031960
:10017000C3282308AB002708AB06AB1FC128F8171C
:10018000C728F813C728F701F801F901FA010000A0
:100190008A110A12132B0408AE00280EF038AA00A8
:1001A000AA07E23EAB00323EAD0028080F39AB078C
:1001B000AB07AD07E93EAC00AC07AC07270E0F3923
:1001C000AC07AD07AC0DAD0DAD09AD0D27080F396E
:1001D000AD07AA0D0730A9000A30AD07AC03031C18
:1001E000ED28AC07AB03031CF128AB07AA03031CE3
:1001F000F528AA07A903031CF92829308400073031
:100200002E0584072D30040203191A290008F7006F
:10021000031D10292E1A1829AE191229203013296E
:100220000830AE003030F70777080C1E152999000A
:10023000840A02290008F7003030F70777080C1EFF
:100240001F2999008A110A122F2BA91B38290F3058
:10025000F700280EF7050A307702031832293030EC
:10026000F70734292908F70777080C1E3529990064
:100270000F30A8050A3028020318402930304229DF
:10028000A9132908A80728080C1E4429990000343E
:100290002D08B6002E08B700B801AA1F512936173D
:1002A000B703AA1729080319F4297F302902031C70
:1002B000B029A900B9010430BA000310AC0DAB0D90
:1002C000AA0DB80DBA0B5D29043029020318702954
:1002D00003302902031DEA290A303802031CEA29E7
:1002E0000330A902B90ABE220310AC0DAB0DAA0D52
:1002F000B80DA7220230BA000310B80CAA0CAB0C40
:10030000AC0CBA0B7C29BE220430BA000310AD0C31
:10031000AE0CAF0CB00CBA0B8629A722BE222F0858
:10032000B0002E08AF002D08AE00AD01A722BE22FE
:100330002E08B0002D08AF00AD01AE01A722B819FC
:100340006429A908031DA929AC0AAB0AAA0AB80A9C
:10035000EA290310AC0DAB0DAA0DB80DA903642951
:10036000A909A90A7F30A907B9010430BA0003100E
:10037000AC0DAB0DAA0DB80DBA0BB7290430A90707
:1003800005302902031CF629BE220310AC0DAB0D6B
:10039000AA0DB80D0310AC0DAB0DAA0DB80DA72218
:1003A0000310AC0DAB0DAA0DB80DB90A0330BA009D
:1003B0000310B80CAA0CAB0CAC0CBA0BD829033048
:1003C000A902381EC0290310B80CAA0CAB0CAC0C47
:1003D000A903C029A909A90A0330A907390AB70244
:1003E000031CB7010130F7290230F7290030B200B1
:1003F000B61B052AB71B052AB7080319052A2030A2
:100400000C1E002A9900B70BFF29361F0B2A2D302E
:100410000C1E082A9900B61F182AB71B182AB708FD
:100420000319182A30300C1E132A9900B70B0F2A13
:10043000B6133613321C232A3908B2003908B40027
:10044000360AB4074D2AB21C272A360AB900B60864
:100450000319A52A2E300C1E2B2A99003908B50045
:10046000B50336083502031C372A3608B500B5082F
:100470000319402A30300C1E3B2A9900B50B3A2A4A
:100480003908BA00360ABA020318C72AA903360A7D
:10049000B4003908B4023408B2003808B1002908A1
:1004A0000319572AB3000310B10CB30B532A3408B5
:1004B0000319A52A303031070C1E5C2A9900320836
:1004C000031D692AB6080319A52A2E300C1E662AB8
:1004D0009900B203B4030319A52A29080319752A40
:1004E000B3000310B10DB30B712A3108B8023808FC
:1004F000AD002A08AE002B08AF002C08B000031096
:10050000AC0DAB0DAA0DB80D0310AC0DAB0DAA0DC3
:10051000B80D3008AC07031C922AAB0F922AAA0F21
:10052000922AB80A2F08AB07031C992AAA0F992A06
:10053000B80A2E08AA070318B80A2D08B80703102E
:10054000AC0DAB0DAA0DB80D4D2A0000C72A30081E
:10055000AC07031CB02AAB0FB02AAA0FB02AB80A06
:100560002F08AB07031CB72AAA0FB72AB80A2E0810
:10057000AA070318B80A2D08B80700343808AD00D8
:100580002A08AE002B08AF002C08B0000034000091
:100590008A110A12642B84011F30830506308316EA
:1005A0009F00813099002630980090308312980087
:1005B000803083169F0083121F083839C1389F008E
:1005C0000030F8001F08C73978049F002130F70079
:1005D000F70BE82A1F151F19EB2A83161E08831232
:1005E000A0001E08A1002130F700F70BF52A00300B
:1005F000831686008312200886002108A3002008A5
:10060000A20032287A08A5007908A4007808A3007F
:100610007708A2002E30A9009030A8002030A70053
:100620007930A60052287708A2007808A30079083C
:10063000A4007A08A500A60126080420A60AF7004F
:1006400077080C1E212B99000A302602031D1C2B53
:10065000103084002108A8002008A700CB280D3006
:10066000A70027080420A70AF70077080C1E362BDE
:10067000990015302702031D312B2108A8003730BF
:10068000A90025212008A8003730A900252118300D
:10069000A80028080420A80AF70077080C1E4E2B93
:1006A000990020302802031D492B2508AC0024089E
:1006B000AB002308AA002208A900B001AF01013055
:1006C000AE000630AD0048292330A90029080420D7
:1006D000A90AF70077080C1E6B2B99002930290214
:0806E000031D662BE62A6300EE
:023E000000348C
:02400E00FE3F73
:00000001FF
;PIC16F877
