:1000000000308A00492B0000FF00030E8301A1008D
:100010000A08A0008A010408A2007708A300780853
:10002000A4007908A5007A08A6007B08A70083131E
:1000300083128B1E1D280B193028220884002308E8
:10004000F7002408F8002508F9002608FA00270818
:10005000FB0020088A00210E8300FF0E7F0E09009E
:100060008A110A127D280A108A100A1182070A349E
:1000700050344F344E34473441344E344F3453347B
:10008000203431343034203450344F34523420341E
:100090004634413456344F3452340A3400340A1052
:1000A0008A100A118207203476346F346C34743429
:1000B00061346A34653420343D3425346C3475340D
:1000C00020345B346434653463345D342C34203440
:1000D00025344C34583420345B34683465347834F7
:1000E0005D342C3420342534323466345B34763439
:1000F0005D340A340D3420340034AA0A0319AB0AE3
:100100002A08063C031D97282B08093C031D972845
:10011000C50145083320C50AF70077080C1E8E2854
:10012000990017304502031D8928AB01AA010B1164
:100130008A110A121D288E30F7002D08F8002C08AD
:10014000F900FA01F808031DAF287908F800F90151
:100150000830F702F808031DAF28F701B72803108D
:10016000F81BB628F90DF80DF703AF28F8130000B7
:100170008A110A12932B2C0803192C29B400300879
:1001800003192C29B407031CC628CD287F30B402DC
:10019000031C2C2903192C29D1288130B4070318FA
:1001A0002C293408F700F801F901FA012D08B800EC
:1001B000B8172E08B7002F08B6001830B400B501E4
:1001C000361CFA283308FA07031CEC28F90A031D29
:1001D000EC28F80A0319B5173208F907031CF328AD
:1001E000F80A0319B5173108AE00AE172E08F80744
:1001F0000318B517B50DF80CF90CFA0CB80CB70CC0
:10020000B60C0310B40BDF280130F70703182C29B4
:10021000F81B1129B80DFA0DF90DF80DF7030319A4
:100220002C29B81F2229FA0A031D2229F90A031DC5
:100230002229F80A031D2229F80CF90CFA0CF70AF6
:1002400003192C292D08B5003108B506B51F2A2938
:10025000F8173029F8133029F701F801F901FA01EC
:1002600000008A110A12A42B0408B800320EF038DC
:10027000B400B407E23EB500323EB70032080F3991
:10028000B507B507B707E93EB600B607B607310EA2
:100290000F39B607B707B60DB70DB709B70D310857
:1002A0000F39B707B40D0730B3000A30B707B603EC
:1002B000031C5629B607B503031C5A29B507B40316
:1002C000031C5E29B407B303031C62293330840086
:1002D00007303805840737300402031983290008E2
:1002E000F700031D7929381A8129B8197B29203094
:1002F0007C290830B8003030F70777080C1E7E29BB
:100300009900840A6B290008F7003030F707770856
:100310000C1E882999008A110A12C02BB31BA1292F
:100320000F30F700320EF7050A30770203189B29C9
:100330003030F7079D293308F70777080C1E9E29F0
:1003400099000F30B2050A3032020318A929303063
:10035000AB29B3133308B20732080C1EAD2999003C
:1003600000343708C0003808C100C201B41FBA29E0
:100370004017C103B417330803195D2A7F303302D5
:10038000031C192AB300C3010430C4000310B60DC6
:10039000B50DB40DC20DC40BC629043033020318C9
:1003A000D92903303302031D532A0A304202031CA9
:1003B000532A0330B302C30A27230310B60DB50D29
:1003C000B40DC20D10230230C4000310C20CB40CD3
:1003D000B50CB60CC40BE52927230430C400031068
:1003E000B70CB80CB90CBA0CC40BEF291023272397
:1003F0003908BA003808B9003708B800B701102327
:1004000027233808BA003708B900B701B80110230C
:10041000C219CD29B308031D122AB60AB50AB40AB7
:10042000C20A532A0310B60DB50DB40DC20DB303A5
:10043000CD29B309B30A7F30B307C3010430C40028
:100440000310B60DB50DB40DC20DC40B202A043037
:10045000B30705303302031C5F2A27230310B60DB0
:10046000B50DB40DC20D0310B60DB50DB40DC20D12
:1004700010230310B60DB50DB40DC20DC30A033021
:10048000C4000310C20CB40CB50CB60CC40B412A4A
:100490000330B302421E292A0310C20CB40CB50C5F
:1004A000B60CB303292AB309B30A0330B307430ACE
:1004B000C102031CC1010130602A0230602A0030F1
:1004C000BC00C01B6E2AC11B6E2AC10803196E2A0C
:1004D00020300C1E692A9900C10B682A401F742A1B
:1004E0002D300C1E712A9900C01F812AC11B812A40
:1004F000C1080319812A30300C1E7C2A9900C10BD7
:10050000782AC01340133C1C8C2A4308BC004308C3
:10051000BE00400ABE07B62ABC1C902A400AC3008F
:10052000C00803190E2B2E300C1E942A9900430884
:10053000BF00BF0340083F02031CA02A4008BF00C1
:10054000BF080319A92A30300C1EA42A9900BF0B3A
:10055000A32A4308C400400AC4020318302BB30383
:10056000400ABE004308BE023E08BC004208BB0071
:1005700033080319C02ABD000310BB0CBD0BBC2AF5
:100580003E0803190E2B30303B070C1EC52A99007C
:100590003C08031DD22AC00803190E2B2E300C1E56
:1005A000CF2A9900BC03BE0303190E2B330803198D
:1005B000DE2ABD000310BB0DBD0BDA2A3B08C202C8
:1005C0004208B7003408B8003508B9003608BA0048
:1005D0000310B60DB50DB40DC20D0310B60DB50D5B
:1005E000B40DC20D3A08B607031CFB2AB50FFB2A4F
:1005F000B40FFB2AC20A3908B507031C022BB40F3B
:10060000022BC20A3808B4070318C20A3708C20707
:100610000310B60DB50DB40DC20DB62A0000302B77
:100620003A08B607031C192BB50F192BB40F192B59
:10063000C20A3908B507031C202BB40F202BC20AAD
:100640003808B4070318C20A3708C2070034420842
:10065000B7003408B8003508B9003608BA000034CD
:1006600000008A110A12F52B2C30840000080319AF
:10067000462B0630F800F701F70B3C2BF80B3B2B11
:100680007B30F700F70B422B800B392B8A110A12B3
:10069000062C84011F308305063083169F008130AD
:1006A000990026309800903083129800AA01AB017F
:1006B000803083169F0083121F083839C1389F008D
:1006C0000030F8001F08C73978049F008101073007
:1006D000F700F71D732B073081018130840000087B
:1006E000C0390F3880006400813084000008C039B0
:1006F000770480008B16C0308B042130F700F70B95
:100700007F2B1F151F19822B83161E088312A8002A
:100710001E08A9002130F700F70B8C2B2908AD002B
:100720002808AC009B287A08AF007908AE0078084A
:10073000AD007708AC002E30B3009030B20020300E
:10074000B1007930B000BB287708AC007808AD0064
:100750007908AE007A08AF00B00130084F20B00A27
:10076000F70077080C1EB22B99000A303002031DE7
:10077000AD2B103084002908B2002808B1003429BC
:100780000D30B10031084F20B10AF70077080C1E78
:10079000C72B990015303102031DC22B2908B20066
:1007A0003730B3008E212808B2003730B3008E21D5
:1007B0001830B20032084F20B20AF70077080C1E3A
:1007C000DF2B990020303202031DDA2B2F08B600F0
:1007D0002E08B5002D08B4002C08B300BA01B901E9
:1007E0000130B8000630B700B1292330B300330818
:1007F0004F20B30AF70077080C1EFC2B9900293014
:100800003302031DF72B6430AC00342B7D2B6300C7
:023E000000348C
:02400E00FE3F73
:00000001FF
;PIC16F877
