:020000040000FA
:020000000528D1
:06000A0083160313003011
:100010009F003F3085000030860018158130990020
:10002000181298168312981718168C1E15281A087D
:1000300099008316981C1A2883121908413C031D45
:1000400025280030642086001528453C031D2C28F7
:100050000130642086001528493C031D33280230F6
:100060006420860015284F3C031D3A280330642085
:1000700086001528553C031D412804306420860065
:100080001528613C031D482805306420860015288A
:10009000653C031D4F280630642086001528693C06
:1000A000031D562807306420860015286F3C031D69
:1000B0005D280830642086001528753C031D15282E
:1000C0000930642086001528820777347934063495
:0E00D0003F343E344C34583404345C341C3419
:00000001FF
