:020000040000FA
:020000000528D1
:06000A00860183160313BA
:1000100086011815813099001812981683129817C6
:1000200018168C1E11281A0886013030A4001A08F0
:10003000240603193A283130A5001A0825060319A9
:100040003D283230A6001A0826060319402833300E
:10005000A7001A082706031948283430A9001A08EF
:100060002906031950283530B0001A083006031944
:100070005F281428003086001428FF3086001428DA
:10008000803086006620860C6620061C43281428D3
:10009000013086006620860D6620861F4B281428B6
:1000A000803086006620860C6620061C53280130AE
:1000B00086006620860D6620861F5A281428003088
:1000C00086006620FF308600662014281530A100C7
:1000D0006030A2005030A300A30B6C28A20B6A284A
:0600E000A10B68280800D6
:00000001FF
