:1000000000308A00242800002F30840000080319E3
:1000100016280630F800F701F70B0C28F80B0B2810
:100020007B30F700F70B1228800B092800340914E5
:1000300000308316860083122E0886000910533084
:10004000F700F70B2128003484011F3083050630A8
:1000500083169F00813099002630980090308312DB
:100060009800A0010030831686000910891009113C
:1000700008148814860004308312AE00FA30AF00F2
:100080000420AE0B3E2800308316860083128601C2
:1000900083168900831289011030AF0004200914EF
:1000A0000030831686003030831286000910053038
:1000B000AF0004200914003083168600303083120C
:1000C00086000910AE30F700F70B6428000000002E
:1000D0000914003083168600303083128600091020
:1000E0000230AF0004200914003083168600383037
:1000F0008312860009100230AF000420091400307A
:100100008316860008308312860009100230AF0083
:100110000420091400308316860001308312860003
:1001200009100230AF000420091400308316860045
:1001300006308312860009100230AF000420091433
:100140000030831686000C308312860009100230BE
:10015000AF00042000308316860083128601091147
:100160008910091483168600C63083128600091090
:100170005330F700F70BBA28091589100230AF0089
:1001800004203630AE0017204530AE001720203056
:10019000AE0017203230AE00172009118910091463
:1001A0000030831686000230831286000910AF00EB
:1001B000042009140030831686000F308312860055
:1001C00009100230AF000420003008180130013C53
:1001D0000319E4282008A00A213E84000030881872
:1001E00001308000003008180130003A0319F2286D
:1001F00020080B3C031D2E2AA0010130AD002D0864
:10020000083C031C2A2921302D078400000B1829E3
:100210002D08083CAE000130F7002E08F800031945
:1002200015290310F70DF80B11297708AC042829BC
:100230002D08083CAE000130F7002E08F800031925
:1002400025290310F70DF80B21297708FF3AAC0593
:10025000AD0AFF28091589101930AF0004202C08B9
:100260000F3C03192E2A2C08F700383077020319A7
:10027000A6294C3077020319AA2984307702031982
:10028000AE29C43077020319B2292430770203194A
:10029000B629D43077020319BA292C307702031912
:1002A000BE29CC3077020319C229C2307702031964
:1002B000C629DC3077020319CA29423077020319B4
:1002C000CE29D23077020319D2295C307702031984
:1002D000D6298C3077020319DA29223077020319E4
:1002E000DE29B23077020319E229A8307702031918
:1002F000E629B43077020319EA29D83077020319C6
:10030000EE29343077020319F2293C3077020319C1
:10031000F629543077020319FA29B8307702031905
:10032000FE29443077020319022AAC307702031900
:10033000062A5830770203190A2A943077020319E3
:100340000E2A0E3077020319122A2A2A4130AE00F3
:1003500017202E2A4230AE0017202E2A4330AE003E
:1003600017202E2A4430AE0017202E2A4530AE002A
:1003700017202E2A4630AE0017202E2A4730AE0016
:1003800017202E2A4830AE0017202E2A4930AE0002
:1003900017202E2A4A30AE0017202E2A4B30AE00EE
:1003A00017202E2A4C30AE0017202E2A4D30AE00DA
:1003B00017202E2A4E30AE0017202E2A4F30AE00C6
:1003C00017202E2A5030AE0017202E2A5130AE00B2
:1003D00017202E2A5230AE0017202E2A5330AE009E
:1003E00017202E2A5430AE0017202E2A5530AE008A
:1003F00017202E2A5630AE0017202E2A5730AE0076
:1004000017202E2A5830AE0017202E2A5930AE0061
:1004100017202E2A5A30AE0017202E2A2030AE0088
:1004200017202E2A0911891009140030831686001E
:100430000230831286000910AF0004200914003036
:10044000831686000F308312860009100230AF0039
:1004500004202E2A3F30AE0017202E2AE428630005
:023E000000348C
:02400E00FE3F73
:00000001FF
;PIC16F877
