:1000000008308A00132800004230840000080319D9
:1000100016280630F800F701F70B0C28F80B0B2810
:100020007B30F700F70B1228800B092800340914E5
:100030000030831686006D08831286000910533045
:10004000F700F70B2128003441080A3C0319342833
:100050002F302107840041088000A10A410883163F
:10006000ED00831217203A28A10A2F3021078400BF
:100070008001A1010034C101C10141080F3C031CF2
:1000800048282F304107840020308000C10A3D28D5
:10009000A1018A150A12B62A091189100914003023
:1000A0008316860001308312860009100915891015
:1000B000003483166A0884000008EC006B08840092
:1000C00000086C02031D72286A0884008008031D62
:1000D0006C280030F80080286A08EA0AEB0A8312CC
:1000E000592883166A0884000008EC006B08840015
:1000F00000086C0203187E28FF307F280130F800CA
:10010000831200344130C2005030C3004530C40077
:100110004C30C500C6004930C7004430C8004F30DD
:10012000C9005330CA004F30CB002030CC00CD0185
:100130005030CE004F30CF005330D0004730D10088
:100140005230D2004130D3004430D4004F30D5007B
:100150004430D6002030D700D8014130D90050308B
:10016000DA004530DB004C30DC00DD004930DE00D9
:100170004430DF004F30E0005330E1005130E20006
:100180002030E300E4014C30E5004530E6004E301D
:10019000E7004730E8005530E9004130EA005330CD
:1001A000EB00EC004530ED004E30EE002030EF006B
:1001B000F0014E308316A0004F30A1004D30A20058
:1001C0004230A3005230A4004530A5005330A600B1
:1001D0004830A7004A30A8002030A900AA014C30BE
:1001E000AB004530AC004E30AD004730AE0055306E
:1001F000AF004130B0005330B1004230B200413066
:10020000B3004E30B4002030B500B6014530B70021
:100210005130B8005530B9004930BA005030BB00F9
:100220004F30BC005330BD002030BE00BF01453010
:10023000C0004E30C1005030C2004330C3004930CE
:10024000C4004E30C5004330C6004F30C7002030D8
:10025000C800C9014230EA00831241088316EB004E
:1002600083125920F808031DF4294F308316ED003E
:10027000831217204C308316ED008312172049306B
:100280008316ED008312172056308316ED0083127B
:10029000172041308316ED0083121720203083167B
:1002A000ED00831217204F308316ED0083121720C4
:1002B0004C308316ED008312172049308316ED0071
:1002C0008312172056308316ED0083121720453015
:1002D0008316ED00831217204E308316ED00831233
:1002E000172043308316ED00831217204930831600
:1002F000ED008312172041308316ED008312172082
:1003000020308316ED00831217204F308316ED0046
:10031000831217204C308316ED00831217204930CA
:100320008316ED008312172056308316ED008312DA
:10033000172041308316ED008312172052308316A8
:10034000ED008312172045308316ED00831217202D
:1003500053308316ED008312172020308316ED00F2
:10036000831217204F308316ED008312172052306E
:100370008316ED008312172054308316ED0083128C
:10038000172045308316ED0083121720473083165F
:10039000ED008312172041308316ED0083121720E1
:1003A00020308316ED00831217204F308316ED00A6
:1003B0008312172052308316ED00831217204F301E
:1003C0008316ED00831217205A308316ED00831236
:1003D000172043308316ED00831217204F30831609
:1003E000ED0083121720F92F4E308316EA00831296
:1003F00041088316EB0083125920F808031D192BBE
:1004000041308316ED008312172052308316ED0021
:100410008312172054308316ED00831217204530C5
:100420008316ED008312172020308316ED0083120F
:10043000172041308316ED00831217204D308316AC
:10044000ED008312172042308316ED00831217202F
:1004500049308316ED008312172045308316ED00D6
:10046000831217204E308316ED008312172054306C
:100470008316ED008312172041308316ED0083129E
:10048000172043308316ED0083121720493083165E
:10049000ED00831217204F308316ED0083121720D2
:1004A0004E308316ED008312172020308316ED00A6
:1004B0008312172046308316ED00831217204F3029
:1004C0008316ED008312172054308316ED0083123B
:1004D00017204F308316ED008312172050308316FB
:1004E000ED008312172045308316ED00831217208C
:1004F00052308316ED008312172049308316ED0029
:10050000831217204F308316ED00831217204430DA
:100510008316ED008312172049308316ED008312F5
:10052000172053308316ED00831217204D308316A9
:10053000ED00831217204F308316ED008312172031
:1005400020308316ED008312172050308316ED0003
:100550008312172055308316ED0083121720423086
:100560008316ED00831217204C308316ED008312A2
:10057000172049308316ED0083121720433083166D
:10058000ED008312172049308316ED0083121720E7
:1005900044308316ED008312172041308316ED009E
:1005A0008312172044308316ED0083121720203069
:1005B0008316ED008312172043308316ED0083125B
:1005C00017204F308316ED00831217204D3083160D
:1005D000ED008312172055308316ED00831217208B
:1005E0004E308316ED008312172049308316ED003C
:1005F0008312172043308316ED00831217204130F9
:100600008316ED008312172043308316ED0083120A
:10061000172049308316ED00831217204F308316C0
:10062000ED00831217204E308316ED008312172041
:10063000F92F59308316EA00831241088316EB0024
:1006400083125920F808031D072C51308316ED0042
:100650008312172055308316ED008312172049307E
:100660008316ED00831217204E308316ED0083129F
:10067000172054308316ED00831217204130831663
:10068000ED00831217204E308316ED0083121720E1
:1006900041308316ED008312172020308316ED00C1
:1006A0008312172051308316ED0083121720553026
:1006B0008316ED008312172045308316ED00831258
:1006C000172053308316ED00831217204130831614
:1006D000ED008312172044308316ED00831217209B
:1006E00041308316ED008312172020308316ED0071
:1006F0008312172051308316ED00831217205530D6
:100700008316ED008312172049308316ED00831203
:1007100017204E308316ED008312172054308316B5
:10072000ED008312172045308316ED008312172049
:1007300052308316ED00831217204F308316ED00E0
:100740008312172020308316ED00831217205130BA
:100750008316ED008312172055308316ED008312A7
:10076000172049308316ED0083121720523083166C
:10077000ED00831217204F308316ED0083121720EF
:1007800047308316ED008312172041308316ED00A9
:100790008312172020308316ED008312172051306A
:1007A0008316ED008312172055308316ED00831257
:1007B000172049308316ED00831217204E30831620
:1007C000ED008312172054308316ED00831217209A
:1007D00041308316ED00831217204E308316ED0052
:1007E0008312172049308316ED00831217204C30F6
:1007F0008316ED00831217204C308316ED00831210
:10080000172041308316ED0083121720F92F653031
:100810008316EA00831241088316EB0083125920E5
:10082000F808031DBE2C46308316ED0083121720F6
:1008300052308316ED008312172041308316ED00ED
:10084000831217204E308316ED0083121720433099
:100850008316ED008312172045308316ED008312B6
:10086000172053308316ED00831217202030831693
:10087000ED008312172057308316ED0083121720E6
:100880004F308316ED00831217204C308316ED0095
:10089000831217204F308316ED0083121720463045
:1008A0008316ED008312172020308316ED0083128B
:1008B00017204D308316ED00831217204130831628
:1008C000ED00831217204E308316ED00831217209F
:1008D00044308316ED008312172045308316ED0057
:1008E0008312172020308316ED008312172050301A
:1008F0008316ED008312172045308316ED00831216
:10090000172055308316ED00831217204C308316C4
:10091000ED008312172048308316ED008312172054
:1009200020308316ED008312172048308316ED0027
:100930008312172041308316ED00831217205330A5
:100940008316ED008312172053308316ED008312B7
:10095000172041308316ED00831217204E30831686
:10096000ED008312172049308316ED008312172003
:1009700041308316ED0083121720F92FA030831623
:10098000EA00831241088316EB0083125920F8080D
:10099000031D8E2D4A308316ED008312172041303F
:1009A0008316ED008312172043308316ED00831267
:1009B000172049308316ED00831217204E3083161E
:1009C000ED008312172054308316ED008312172098
:1009D0004F308316ED008312172020308316ED0070
:1009E000831217204A308316ED00831217204130FE
:1009F0008316ED008312172043308316ED00831217
:100A000017204F308316ED008312172042308316D3
:100A1000ED00831217204F308316ED00831217204C
:100A200020308316ED00831217204A308316ED0024
:100A30008312172041308316ED00831217204930AE
:100A40008316ED008312172052308316ED008312B7
:100A500017204F308316ED008312172020308316A5
:100A6000ED00831217204A308316ED008312172001
:100A700041308316ED008312172056308316ED00A7
:100A80008312172049308316ED008312172045305A
:100A90008316ED008312172052308316ED00831267
:100AA000172020308316ED00831217204A3083165A
:100AB000ED008312172041308316ED0083121720BA
:100AC00049308316ED00831217204D308316ED0058
:100AD0008312172045308316ED0083121720203033
:100AE0008316ED00831217204A308316ED0083121F
:100AF000172045308316ED008312172053308316DC
:100B0000ED008312172055308316ED008312172055
:100B100053308316ED0083121720F92FAB30831664
:100B2000EA00831241088316EB0083125920F8086B
:100B3000031D402E48308316ED00831217204930E4
:100B40008316ED00831217204E308316ED008312BA
:100B5000172044308316ED00831217204930831686
:100B6000ED008312172020308316ED00831217202A
:100B700042308316ED008312172045308316ED00B6
:100B8000831217204E308316ED0083121720473052
:100B90008316ED008312172041308316ED00831277
:100BA00017204C308316ED0083121720493083162E
:100BB000ED008312172020308316ED0083121720DA
:100BC00054308316ED008312172045308316ED0054
:100BD000831217204C308316ED00831217205530F6
:100BE0008316ED008312172047308316ED00831221
:100BF000172055308316ED008312172020308316FE
:100C0000ED00831217204D308316ED00831217205C
:100C100041308316ED008312172052308316ED0009
:100C20008312172041308316ED00831217205430B1
:100C30008316ED008312172049308316ED008312CE
:100C4000172020308316ED008312172054308316AE
:100C5000ED008312172041308316ED008312172018
:100C60004D308316ED008312172049308316ED00B6
:100C7000831217204C308316ED0083121720F92FB2
:100C8000B7308316EA00831241088316EB00831203
:100C90005920F808031D382F4D308316ED008312BC
:100CA00017204F308316ED00831217204E30831625
:100CB000ED008312172054308316ED0083121720A5
:100CC00045308316ED008312172052308316ED0055
:100CD0008312172052308316ED00831217204530FF
:100CE0008316ED008312172059308316ED0083120E
:100CF000172020308316ED008312172054308316FE
:100D0000ED008312172049308316ED00831217205F
:100D100047308316ED008312172052308316ED0002
:100D20008312172045308316ED00831217205330AD
:100D30008316ED008312172020308316ED008312F6
:100D4000172041308316ED00831217204D30831693
:100D5000ED008312172045308316ED008312172013
:100D600052308316ED008312172049308316ED00B0
:100D70008312172043308316ED0083121720413071
:100D80008316ED008312172020308316ED008312A6
:100D9000172043308316ED00831217204830831646
:100DA000ED008312172049308316ED0083121720BF
:100DB00056308316ED008312172041308316ED0064
:100DC0008312172053308316ED0083121720203032
:100DD0008316ED008312172054308316ED00831222
:100DE00017204F308316ED00831217204C308316E6
:100DF000ED008312172055308316ED008312172063
:100E000043308316ED008312172041308316ED0026
:100E10008312172020308316ED00831217204330F1
:100E20008316ED008312172052308316ED008312D3
:100E3000172055308316ED00831217205A30831681
:100E4000ED008312172041308316ED008312172026
:100E50005A308316ED008312172055308316ED00AB
:100E6000831217204C308316ED0083121720F92FC0
:100E7000C0308316EA00831241088316EB00831208
:100E80005920F808031DA42F4A308316CA004F309A
:100E9000CB005330CC004530CD002030CE00563052
:100EA000CF004130D0005330D1004330D2004F301A
:100EB000D3004E30D4004330D5004530D6004C30FE
:100EC000D7004F30D8005330D9002030DA004330FB
:100ED000DB004130DC004C30DD005A30DE002030D9
:100EE000DF004430E0004530E1004C30E2002030CB
:100EF000E3004830E4005530E5004530E60053306B
:100F0000E7004F30E800E901CA30EA00EB01EB01ED
:100F10006B08323C031CA22F6A086B078400800810
:100F200003199C2F6A086B0784000008EC00ED0091
:100F3000831217209F2F83163230EB008312831603
:100F4000EB0A882FFA2F83124E308316ED0083129E
:100F500017204F308316ED0083121720543083166C
:100F6000ED008312172020308316ED008312172026
:100F700056308316ED008312172041308316ED00A2
:100F8000831217204C308316ED008312172049304E
:100F90008316ED008312172044308316ED00831270
:100FA000172020308316ED00831217204F30831650
:100FB000ED008312172050308316ED0083121720A6
:100FC00054308316ED008312172049308316ED004C
:100FD000831217204F308316ED00831217204E30F6
:100FE0008316ED008312172021308316ED00831243
:0C0FF0001720831683128A150A12D52AD6
:1010000009118910091400308316860018308312E4
:10101000860009105330F700F70B0C2809158910CA
:101020008A150A12E52A84011F30830506308316CB
:101030009F008312A001813083169900263098000A
:10104000903083129800A101A2012030AF00B000BF
:10105000B100B200B300B400B500B600B700B800EC
:10106000B900BA00BB00BC00BD00BE00BF0100302B
:101070008316860009108910091108148814860047
:1010800004308312C100FA30C2008A1104208A158C
:10109000C10B432800308316860083128601831615
:1010A0008900831289011030C2008A1104208A1538
:1010B0000914003083168600303083128600091030
:1010C0000530C2008A1104208A15091400308316E5
:1010D00086003030831286000910AE30F700F70B1F
:1010E0006F2800000000091400308316860030309D
:1010F0008312860009100230C2008A1104208A156A
:1011000009140030831686003830831286000910D7
:101110000230C2008A1104208A1509140030831697
:10112000860008308312860009100230C2008A113E
:1011300004208A15091400308316860001308312BA
:10114000860009100230C2008A1104208A15091491
:1011500000308316860006308312860009100230A4
:10116000C2008A1104208A150914003083168600F3
:101170000C308312860009100230C2008A1104204C
:101180008A1500308316860083128601091589109E
:101190000230C2008A1104208A1557308316ED00F0
:1011A0008A11831217208A1545308316ED008A11A3
:1011B000831217208A154C308316ED008A11831292
:1011C00017208A1543308316ED008A1183121720E9
:1011D0008A154F308316ED008A11831217208A1565
:1011E0004D308316ED008A11831217208A15453081
:1011F0008316ED008A11831217208A1509118910B0
:101200000914003083168600C63083128600091048
:101210005330F700F70B0A29091589100230C20074
:101220008A1104208A1536308316ED008A11831244
:1012300017208A1545308316ED008A118312172076
:101240008A1520308316ED008A11831217208A1523
:1012500032308316ED008A11831217208A15091186
:10126000891009140030831686000230831286002C
:101270000910C2008A1104208A150914003083164F
:1012800086000F308312860009100230C2008A11D6
:1012900004208A15003008180130013C03194A293E
:1012A0002208A20A233E8400003088180130800002
:1012B000003008180130003A0319582922080B3C65
:1012C000031DF12AA2010130C0004008083C031CA4
:1012D0009029233040078400000B7E294008083CF9
:1012E000C1000130F7004108F80003197B29031001
:1012F000F70DF80B77297708AE048E294008083CD3
:10130000C1000130F7004108F80003198B290310D0
:10131000F70DF80B87297708FF3AAE05C00A652953
:10132000091589101930C2008A1104208A152E0867
:101330000F3C0319F12A2E08F70038307702031901
:10134000122A4C3077020319182A843077020319C5
:101350001E2AC43077020319242A24307702031985
:101360002A2AD43077020319302A2C307702031945
:10137000362ACC30770203193C2AC230770203198F
:10138000422ADC3077020319482A423077020319D7
:101390004E2AD23077020319542A5C30770203199F
:1013A0005A2A8C3077020319602A223077020319F7
:1013B000662AB230770203196C2AA8307702031923
:1013C000722AB43077020319782AD83077020319C9
:1013D0007E2A343077020319842A3C3077020319BD
:1013E0008A2A543077020319902AB83077020319F9
:1013F000962A4430770203199C2AAC3077020319ED
:10140000A22A583077020319A82A943077020319C8
:10141000AE2A6E3077020319B42A5A3077020319C4
:10142000BB2AF12A4130C1008A1124208A15F12AF1
:101430004230C1008A1124208A15F12A4330C100AC
:101440008A1124208A15F12A4430C1008A112420EF
:101450008A15F12A4530C1008A1124208A15F12A03
:101460004630C1008A1124208A15F12A4730C10074
:101470008A1124208A15F12A4830C1008A112420BB
:101480008A15F12A4930C1008A1124208A15F12ACF
:101490004A30C1008A1124208A15F12A4B30C1003C
:1014A0008A1124208A15F12A4C30C1008A11242087
:1014B0008A15F12A4D30C1008A1124208A15F12A9B
:1014C0004E30C1008A1124208A15F12A4F30C10004
:1014D0008A1124208A15F12A5030C1008A11242053
:1014E0008A15F12A5130C1008A1124208A15F12A67
:1014F0005230C1008A1124208A15F12A5330C100CC
:101500008A1124208A15F12A5430C1008A1124201E
:101510008A15F12A5530C1008A1124208A15F12A32
:101520005630C1008A1124208A15F12A5730C10093
:101530008A1124208A15F12A5830C1008A112420EA
:101540008A15F12A5930C1008A1124208A15F12AFE
:101550005A30C1008A1124208A15F12A2030C10096
:101560008A1124208A15F12A8A113B288A158A11AA
:101570004C208A15F12A0A30C1008A1124208A15CC
:10158000FA30C2008A1104208A158A114C208A156B
:101590000230C1009630C2008A1104208A15C10BA6
:1015A000CA2A2F30C1008A1182288A150230C10050
:1015B000C830C2008A1104208A15C10BD82AC00184
:1015C0004008273C031CF02A00280230C100FA30F2
:1015D000C2008A1104208A15C10BE72AC00AE02A3A
:0615E000F12A4A29630014
:023E000000348C
:02400E00FE3F73
:00000001FF
;PIC16F877
