:1000000000308A00192800003030840000080319ED
:1000100016280630F800F701F70B0C28F80B0B2810
:100020007B30F700F70B1228800B09288A110A127F
:10003000362884011F308305063083169F008130E7
:10004000990026309800903083129800A001083063
:10005000AD008316081488140030860086008312D1
:1000600086010430AF00FA30B0000428AF0B33280B
:10007000003008180130013C031938282008A00A74
:10008000213E8400003088180130800000300818BC
:100090000130003A0319462820080B3C031D88282C
:1000A000A0010130AE002E08083C031C7E28213040
:1000B0002E078400000B6C282E08083CAF0001308E
:1000C000F7002F08F800031969280310F70DF80B43
:1000D00065287708AC047C282E08083CAF00013066
:1000E000F7002F08F800031979280310F70DF80B13
:1000F00075287708FF3AAC05AE0A53282C080F3C48
:100100000319882800308316860083122C08860085
:040110003828630028
:023E000000348C
:02400E00FE3F73
:00000001FF
;PIC16F877
