:020000040000FA
:020000000528D1
:06000A0085018901831647
:10001000031300309F00860188018312A401C130C0
:100020009F006E30A3001F1546201F1D15281E08B7
:10003000230203181C2837281E08A4001F28880143
:10004000081424080F395020A200220986004B20F2
:100050000810880188142408F039A600A60E260886
:100060005020A200220986004B2088011328880115
:1000700008148630A200220986004B2088018814CB
:100080008230A200220986004B2013280630A100EE
:10009000A10B48280800FF30B400B40B4D2808001D
:1000A0008207C034F934A434B034993492348234A1
:1000B000F8348034903488348334C634A1348634A0
:0400C0008E34080072
:00000001FF
