:1000000000308A00592800000A108A100A1182075D
:10001000203454346F3464346F34733420346C348B
:100020006F3473342034623469347434733420345C
:1000300065346E34633465346E34643469346434E6
:100040006F34733420340A340D3400340A108A10AB
:100050000A118207203454346F3464346F3473349B
:1000600020346C346F34733420346C34653464342D
:1000700073342034613470346134673461346434EF
:100080006F34733420340A340D3400342230840049
:100090000008031958280630F800F701F70B4E281E
:1000A000F80B4D287B30F700F70B5428800B4B28BA
:1000B000003484011F308305063083169F00813091
:1000C00099002630980090308312980000308316F3
:1000D0008600FF3083128600A10121080420A10AB6
:1000E000F70077080C1E722899001D302102031DAD
:1000F0006D280430A100FA30A2004620A10B7B2815
:1001000000308316860083128601A1012108262073
:10011000A10AF70077080C1E8B2899001B302102DA
:10012000031D86280430A100FA30A2004620A10B4E
:060130009428662863001C
:023E000000348C
:02400E00FE3F73
:00000001FF
;PIC16F877
