:1000000000308A00CF2800000A108A100A118207E7
:10001000203454346F3464346F34733420346C348B
:100020006F3473342034623469347434733420345C
:100030006134703461346734613464346F347334E0
:1000400020340A340D3400340A108A100A11820751
:10005000203454346F3464346F34733420346C344B
:100060006F3473342034623469347434733420341C
:1000700065346E34633465346E34643469346434A6
:100080006F34733420340A340D3400340A108A106B
:100090000A118207203443346F3472347234693465
:1000A0006D34693465346E3474346F3420346134A3
:1000B00020346C34613420346434653472346534F3
:1000C00063346834613420340A340D3400340A1047
:1000D0008A100A118207203443346F347234723428
:1000E00069346D34693465346E3474346F3420345B
:1000F000613420346C346134203469347A3471349E
:1001000075346934653472346434613420340A34AB
:100110000D3400340A108A100A1182072034433447
:100120006F347234723469346D34693465346E34CA
:1001300074346F3420346134203461346D3462346B
:100140006F34733420346C34613464346F347334FA
:1001500020340A340D3400340A108A100A11820740
:10016000203446346C3461347334683465346F340D
:1001700020340A340D34003424308400000803197C
:10018000CE280630F800F701F70BC428F80BC32877
:100190007B30F700F70BCA28800BC128003484019C
:1001A0001F308305063083169F008130990026306A
:1001B0009800903083129800A2018C1EDD281A0846
:1001C000A0002008303C0319F9282008313C03190D
:1001D000F9282008323C0319F9282008333C031978
:1001E000F9282008343C0319F9282008353C031D60
:1001F000DD282008303C031D0F29A301230804201B
:10020000A30AF70077080C1E032999001B3023026C
:10021000031DFE2800308316860083128601200805
:10022000313C031D2629A30123082420A30AF7003B
:1002300077080C1E192999001D302302031D14296B
:10024000003083168600FF30831286002008323C7F
:10025000031D4F29A30123084620A30AF7007708AE
:100260000C1E302999001C302302031D2B298030DD
:10027000A100A201210CA10C00308316860083127C
:10028000210886000430A300FA30A400BC20A30B90
:100290004429A20A22080A3C03194F293A292008B6
:1002A000333C031D7829A30123086720A30AF70024
:1002B00077080C1E592999001E302302031D54296A
:1002C0000130A100A201210DA10D0030831686008E
:1002D0008312210886000430A300FA30A400BC2059
:1002E000A30B6D29A20A22080A3C03197829632965
:1002F0002008343C031DB629A30123088A20A30A41
:10030000F70077080C1E822999001D302302031D77
:100310007D298030A100A201210CA10C00308316A0
:1003200086008312210886000430A300FA30A4005E
:10033000BC20A30B9629210B8C29210DA10D003087
:10034000831686008312210886000430A300FA3049
:10035000A400BC20A30BA7292108803C031D9D29D4
:10036000A20A22080A3C0319B6298C292008353C28
:10037000031DE729A3012308AC20A30AF70077088F
:100380000C1EC02999000B302302031DBB29A201BA
:10039000003083168600831286010430A300FA30F1
:1003A000A400BC20A30BCF29003083168600FF30A9
:1003B000831286000430A300FA30A400BC20A30BF3
:1003C000DC29A20A22080A3C0319E729C829DD28EA
:0203D0006300C8
:023E000000348C
:02400E00FE3F73
:00000001FF
;PIC16F877
