:020000040000FA
:020000000528D1
:06000A00850183160313BB
:10001000860106309F003F30850083128518112825
:10002000142805182A282328051917281A2805181E
:100030003D283128051820281D28003086000E286C
:10004000FF3086000E2880308600860C4420861FF4
:1000500025280E2801308600860D4420061C2C28F9
:100060000E2880308600860C4420861F33283828CE
:10007000860D4420061C38280E28FF3086004420B8
:100080000030860044200E282030A1005030A2000D
:100090006030A300A30B4A28A20B4828A10B4628D6
:0200A000080056
:00000001FF
